{
  "_format": "hh-sol-artifact-1",
  "contractName": "DigitalSignature",
  "sourceName": "contracts/DigitalSignature.sol",
  "abi": [
    {
      "anonymous": false,
      "inputs": [
        {
          "indexed": true,
          "internalType": "bytes32",
          "name": "documentHash",
          "type": "bytes32"
        },
        {
          "indexed": true,
          "internalType": "address",
          "name": "signer",
          "type": "address"
        },
        {
          "indexed": false,
          "internalType": "uint256",
          "name": "timestamp",
          "type": "uint256"
        }
      ],
      "name": "DocumentSigned",
      "type": "event"
    },
    {
      "inputs": [
        {
          "internalType": "bytes32",
          "name": "_documentHash",
          "type": "bytes32"
        }
      ],
      "name": "getSignature",
      "outputs": [
        {
          "internalType": "bytes32",
          "name": "documentHash",
          "type": "bytes32"
        },
        {
          "internalType": "bytes",
          "name": "signature",
          "type": "bytes"
        },
        {
          "internalType": "address",
          "name": "signer",
          "type": "address"
        },
        {
          "internalType": "uint256",
          "name": "timestamp",
          "type": "uint256"
        }
      ],
      "stateMutability": "view",
      "type": "function"
    },
    {
      "inputs": [
        {
          "internalType": "bytes32",
          "name": "",
          "type": "bytes32"
        }
      ],
      "name": "signatures",
      "outputs": [
        {
          "internalType": "bytes32",
          "name": "documentHash",
          "type": "bytes32"
        },
        {
          "internalType": "bytes",
          "name": "signature",
          "type": "bytes"
        },
        {
          "internalType": "address",
          "name": "signer",
          "type": "address"
        },
        {
          "internalType": "uint256",
          "name": "timestamp",
          "type": "uint256"
        }
      ],
      "stateMutability": "view",
      "type": "function"
    },
    {
      "inputs": [
        {
          "internalType": "bytes32",
          "name": "_documentHash",
          "type": "bytes32"
        },
        {
          "internalType": "bytes",
          "name": "_signature",
          "type": "bytes"
        }
      ],
      "name": "storeSignature",
      "outputs": [],
      "stateMutability": "nonpayable",
      "type": "function"
    },
    {
      "inputs": [
        {
          "internalType": "address",
          "name": "_signer",
          "type": "address"
        },
        {
          "internalType": "bytes32",
          "name": "_documentHash",
          "type": "bytes32"
        },
        {
          "internalType": "bytes",
          "name": "_signature",
          "type": "bytes"
        }
      ],
      "name": "verifySignature",
      "outputs": [
        {
          "internalType": "bool",
          "name": "",
          "type": "bool"
        }
      ],
      "stateMutability": "view",
      "type": "function"
    }
  ],
  "bytecode": "0x608060405234801561001057600080fd5b50610806806100206000396000f3fe608060405234801561001057600080fd5b506004361061004c5760003560e01c806301751998146100515780632422224e14610079578063b96aefd51461009c578063c4b14e0b146100b1575b600080fd5b61006461005f366004610554565b6100c4565b60405190151581526020015b60405180910390f35b61008c6100873660046105b9565b6101d5565b60405161007094939291906105d2565b6100af6100aa366004610640565b610290565b005b61008c6100bf3660046105b9565b6103ad565b600082815260208181526040808320815160808101909252805482526001810180548594840191906100f590610687565b80601f016020809104026020016040519081016040528092919081815260200182805461012190610687565b801561016e5780601f106101435761010080835404028352916020019161016e565b820191906000526020600020905b81548152906001019060200180831161015157829003601f168201915b505050918352505060028201546001600160a01b03908116602083015260039092015460409182015282015191925086811691161480156101af5750805184145b80156101cc57508280519060200120816020015180519060200120145b95945050505050565b600060208190529081526040902080546001820180549192916101f790610687565b80601f016020809104026020016040519081016040528092919081815260200182805461022390610687565b80156102705780601f1061024557610100808354040283529160200191610270565b820191906000526020600020905b81548152906001019060200180831161025357829003601f168201915b50505050600283015460039093015491926001600160a01b031691905084565b6000828152602081905260409020600201546001600160a01b0316156102fc5760405162461bcd60e51b815260206004820152601760248201527f446f63756d656e7420616c7265616479207369676e6564000000000000000000604482015260640160405180910390fd5b604080516080810182528381526020808201848152338385015242606084015260008681529182905292902081518155915190919060018201906103409082610710565b506040828101516002830180546001600160a01b0319166001600160a01b0390921691909117905560609092015160039091015551428152339083907fcb4765881b79e3f3e656357a384db0c5ebdbdad01ab9fbc82ea10f38b7730dbc9060200160405180910390a35050565b600060606000806000806000878152602001908152602001600020604051806080016040529081600082015481526020016001820180546103ed90610687565b80601f016020809104026020016040519081016040528092919081815260200182805461041990610687565b80156104665780601f1061043b57610100808354040283529160200191610466565b820191906000526020600020905b81548152906001019060200180831161044957829003601f168201915b505050918352505060028201546001600160a01b0316602080830191909152600390920154604091820152825191830151908301516060909301519199909850919650945092505050565b634e487b7160e01b600052604160045260246000fd5b600082601f8301126104d857600080fd5b813567ffffffffffffffff808211156104f3576104f36104b1565b604051601f8301601f19908116603f0116810190828211818310171561051b5761051b6104b1565b8160405283815286602085880101111561053457600080fd5b836020870160208301376000602085830101528094505050505092915050565b60008060006060848603121561056957600080fd5b83356001600160a01b038116811461058057600080fd5b925060208401359150604084013567ffffffffffffffff8111156105a357600080fd5b6105af868287016104c7565b9150509250925092565b6000602082840312156105cb57600080fd5b5035919050565b84815260006020608081840152855180608085015260005b818110156106065787810183015185820160a0015282016105ea565b50600060a08286018101919091526001600160a01b0396909616604085015260608401949094525050601f909101601f1916010192915050565b6000806040838503121561065357600080fd5b82359150602083013567ffffffffffffffff81111561067157600080fd5b61067d858286016104c7565b9150509250929050565b600181811c9082168061069b57607f821691505b6020821081036106bb57634e487b7160e01b600052602260045260246000fd5b50919050565b601f82111561070b57600081815260208120601f850160051c810160208610156106e85750805b601f850160051c820191505b81811015610707578281556001016106f4565b5050505b505050565b815167ffffffffffffffff81111561072a5761072a6104b1565b61073e816107388454610687565b846106c1565b602080601f831160018114610773576000841561075b5750858301515b600019600386901b1c1916600185901b178555610707565b600085815260208120601f198616915b828110156107a257888601518255948401946001909101908401610783565b50858210156107c05787850151600019600388901b60f8161c191681555b5050505050600190811b0190555056fea264697066735822122068b8241a7c964a9c73b19e0acac4a54f2d7087f6a2ccdb6da4e34cc3bc2ce0ac64736f6c63430008140033",
  "linkReferences": {},
  "deployedLinkReferences": {}
}